{
  "contractName": "QuackContract",
  "abi": [
    {
      "inputs": [],
      "payable": false,
      "stateMutability": "nonpayable",
      "type": "constructor"
    },
    {
      "constant": true,
      "inputs": [],
      "name": "name",
      "outputs": [
        {
          "internalType": "string",
          "name": "",
          "type": "string"
        }
      ],
      "payable": false,
      "stateMutability": "pure",
      "type": "function"
    },
    {
      "constant": true,
      "inputs": [],
      "name": "symbol",
      "outputs": [
        {
          "internalType": "string",
          "name": "",
          "type": "string"
        }
      ],
      "payable": false,
      "stateMutability": "pure",
      "type": "function"
    },
    {
      "constant": true,
      "inputs": [
        {
          "internalType": "string",
          "name": "_slackId",
          "type": "string"
        }
      ],
      "name": "checkBalance",
      "outputs": [
        {
          "internalType": "uint256",
          "name": "amount",
          "type": "uint256"
        }
      ],
      "payable": false,
      "stateMutability": "view",
      "type": "function"
    },
    {
      "constant": false,
      "inputs": [
        {
          "internalType": "string",
          "name": "_sender",
          "type": "string"
        },
        {
          "internalType": "string",
          "name": "_receiver",
          "type": "string"
        },
        {
          "internalType": "uint256",
          "name": "amount",
          "type": "uint256"
        }
      ],
      "name": "sendQuack",
      "outputs": [
        {
          "internalType": "bool",
          "name": "success",
          "type": "bool"
        }
      ],
      "payable": false,
      "stateMutability": "nonpayable",
      "type": "function"
    },
    {
      "constant": true,
      "inputs": [],
      "name": "getTotalSupply",
      "outputs": [
        {
          "internalType": "uint256",
          "name": "total",
          "type": "uint256"
        }
      ],
      "payable": false,
      "stateMutability": "view",
      "type": "function"
    },
    {
      "constant": false,
      "inputs": [
        {
          "internalType": "string",
          "name": "_minter",
          "type": "string"
        },
        {
          "internalType": "uint256",
          "name": "amount",
          "type": "uint256"
        }
      ],
      "name": "mintQuacks",
      "outputs": [
        {
          "internalType": "bool",
          "name": "success",
          "type": "bool"
        }
      ],
      "payable": false,
      "stateMutability": "nonpayable",
      "type": "function"
    },
    {
      "constant": false,
      "inputs": [
        {
          "internalType": "string",
          "name": "_bernieId",
          "type": "string"
        },
        {
          "internalType": "uint256",
          "name": "amount",
          "type": "uint256"
        }
      ],
      "name": "burnQuacks",
      "outputs": [
        {
          "internalType": "bool",
          "name": "success",
          "type": "bool"
        }
      ],
      "payable": false,
      "stateMutability": "nonpayable",
      "type": "function"
    },
    {
      "constant": false,
      "inputs": [
        {
          "internalType": "uint256",
          "name": "index",
          "type": "uint256"
        }
      ],
      "name": "removeUser",
      "outputs": [
        {
          "internalType": "bool",
          "name": "success",
          "type": "bool"
        }
      ],
      "payable": false,
      "stateMutability": "nonpayable",
      "type": "function"
    },
    {
      "constant": true,
      "inputs": [],
      "name": "getAccountList",
      "outputs": [
        {
          "internalType": "string[]",
          "name": "",
          "type": "string[]"
        }
      ],
      "payable": false,
      "stateMutability": "view",
      "type": "function"
    },
    {
      "constant": false,
      "inputs": [
        {
          "internalType": "string",
          "name": "_slackId",
          "type": "string"
        },
        {
          "internalType": "uint256",
          "name": "amount",
          "type": "uint256"
        }
      ],
      "name": "distributeCoin",
      "outputs": [
        {
          "internalType": "bool",
          "name": "success",
          "type": "bool"
        }
      ],
      "payable": false,
      "stateMutability": "nonpayable",
      "type": "function"
    }
  ],
  "bytecode": "0x608060405234801561001057600080fd5b506127106000819055506110e4806100296000396000f3fe608060405234801561001057600080fd5b506004361061009e5760003560e01c806395d89b411161006657806395d89b411461016f578063973900a01461018d578063c4e41b22146101bd578063cc8c2999146101db578063f2ea93c61461020b5761009e565b806306fdde03146100a357806311dc4703146100c15780632843314e146100f1578063402f0df31461010f5780638fe2ada11461013f575b600080fd5b6100ab61023b565b6040516100b89190610eef565b60405180910390f35b6100db60048036036100d69190810190610cc2565b610278565b6040516100e89190610ed4565b60405180910390f35b6100f9610399565b6040516101069190610eb2565b60405180910390f35b61012960048036036101249190810190610c6e565b610487565b6040516101369190610ed4565b60405180910390f35b61015960048036036101549190810190610c6e565b6104fe565b6040516101669190610ed4565b60405180910390f35b6101776105a0565b6040516101849190610eef565b60405180910390f35b6101a760048036036101a29190810190610bae565b6105dd565b6040516101b49190610f31565b60405180910390f35b6101c5610605565b6040516101d29190610f31565b60405180910390f35b6101f560048036036101f09190810190610c6e565b61060e565b6040516102029190610ed4565b60405180910390f35b61022560048036036102209190810190610bef565b610792565b6040516102329190610ed4565b60405180910390f35b60606040518060400160405280600581526020017f517561636b000000000000000000000000000000000000000000000000000000815250905090565b6000806001808054905003905060606001828154811061029457fe5b906000526020600020018054600181600116156101000203166002900480601f0160208091040260200160405190810160405280929190818152602001828054600181600116156101000203166002900480156103325780601f1061030757610100808354040283529160200191610332565b820191906000526020600020905b81548152906001019060200180831161031557829003601f168201915b50505050509050806001858154811061034757fe5b906000526020600020019080519060200190610364929190610a58565b50600180548061037057fe5b60019003818190600052602060002001600061038c9190610ad8565b9055600192505050919050565b6060806001805480602002602001604051908101604052809291908181526020016000905b8282101561047a578382906000526020600020018054600181600116156101000203166002900480601f0160208091040260200160405190810160405280929190818152602001828054600181600116156101000203166002900480156104665780601f1061043b57610100808354040283529160200191610466565b820191906000526020600020905b81548152906001019060200180831161044957829003601f168201915b5050505050815260200190600101906103be565b5050505090508091505090565b60008160028460405161049a9190610e9b565b90815260200160405180910390206000828254019250508190555060018390806001815401808255809150509060018203906000526020600020016000909192909190915090805190602001906104f2929190610a58565b50506001905092915050565b6000806002846040516105119190610e9b565b908152602001604051809103902054905082811015610565576040517f08c379a000000000000000000000000000000000000000000000000000000000815260040161055c90610f11565b60405180910390fd5b8281036002856040516105789190610e9b565b9081526020016040518091039020819055508260005403600081905550600191505092915050565b60606040518060400160405280600381526020017f51414b0000000000000000000000000000000000000000000000000000000000815250905090565b60006002826040516105ef9190610e9b565b9081526020016040518091039020549050919050565b60008054905090565b6000806001805490509050826000808282540192505081905550600081848161063357fe5b04905060008090505b828110156107325760606001828154811061065357fe5b906000526020600020018054600181600116156101000203166002900480601f0160208091040260200160405190810160405280929190818152602001828054600181600116156101000203166002900480156106f15780601f106106c6576101008083540402835291602001916106f1565b820191906000526020600020905b8154815290600101906020018083116106d457829003601f168201915b50505050509050826002826040516107099190610e9b565b90815260200160405180910390206000828254019250508190555050808060010191505061063c565b5060006002866040516107459190610e9b565b90815260200160405180910390205490506002828161076057fe5b0481036002876040516107739190610e9b565b9081526020016040518091039020819055506001935050505092915050565b6000806002856040516107a59190610e9b565b9081526020016040518091039020549050828110156107f9576040517f08c379a00000000000000000000000000000000000000000000000000000000081526004016107f090610f11565b60405180910390fd5b600061080485610919565b90508061089a576001859080600181540180825580915050906001820390600052602060002001600090919290919091509080519060200190610848929190610a58565b50506002848161085457fe5b046002876040516108659190610e9b565b9081526020016040518091039020600082825401925050819055506002848161088a57fe5b0460008082825401925050819055505b6002866040516108aa9190610e9b565b90815260200160405180910390205491508382036002876040516108ce9190610e9b565b908152602001604051809103902081905550836002866040516108f19190610e9b565b9081526020016040518091039020600082825401925050819055506001925050509392505050565b6000806000905060008090505b600180549050811015610a4e5760606001828154811061094257fe5b906000526020600020018054600181600116156101000203166002900480601f0160208091040260200160405190810160405280929190818152602001828054600181600116156101000203166002900480156109e05780601f106109b5576101008083540402835291602001916109e0565b820191906000526020600020905b8154815290600101906020018083116109c357829003601f168201915b50505050509050846040516020016109f89190610e9b565b6040516020818303038152906040528051906020012081604051602001610a1f9190610e9b565b604051602081830303815290604052805190602001201415610a4057600192505b508080600101915050610926565b5080915050919050565b828054600181600116156101000203166002900490600052602060002090601f016020900481019282601f10610a9957805160ff1916838001178555610ac7565b82800160010185558215610ac7579182015b82811115610ac6578251825591602001919060010190610aab565b5b509050610ad49190610b20565b5090565b50805460018160011615610100020316600290046000825580601f10610afe5750610b1d565b601f016020900490600052602060002090810190610b1c9190610b20565b5b50565b610b4291905b80821115610b3e576000816000905550600101610b26565b5090565b90565b600082601f830112610b5657600080fd5b8135610b69610b6482610f79565b610f4c565b91508082526020830160208301858383011115610b8557600080fd5b610b90838284611037565b50505092915050565b600081359050610ba88161108a565b92915050565b600060208284031215610bc057600080fd5b600082013567ffffffffffffffff811115610bda57600080fd5b610be684828501610b45565b91505092915050565b600080600060608486031215610c0457600080fd5b600084013567ffffffffffffffff811115610c1e57600080fd5b610c2a86828701610b45565b935050602084013567ffffffffffffffff811115610c4757600080fd5b610c5386828701610b45565b9250506040610c6486828701610b99565b9150509250925092565b60008060408385031215610c8157600080fd5b600083013567ffffffffffffffff811115610c9b57600080fd5b610ca785828601610b45565b9250506020610cb885828601610b99565b9150509250929050565b600060208284031215610cd457600080fd5b6000610ce284828501610b99565b91505092915050565b6000610cf78383610ded565b905092915050565b6000610d0a82610fb5565b610d148185610fe3565b935083602082028501610d2685610fa5565b8060005b85811015610d625784840389528151610d438582610ceb565b9450610d4e83610fd6565b925060208a01995050600181019050610d2a565b50829750879550505050505092915050565b610d7d81611021565b82525050565b6000610d8e82610fcb565b610d988185611005565b9350610da8818560208601611046565b610db181611079565b840191505092915050565b6000610dc782610fcb565b610dd18185611016565b9350610de1818560208601611046565b80840191505092915050565b6000610df882610fc0565b610e028185610ff4565b9350610e12818560208601611046565b610e1b81611079565b840191505092915050565b6000610e33603a83611005565b91507f596f7520646f6e2774206861766520656e6f75676820517561636b7320746f2060008301527f636f6d706c6574652074686174207472616e73616374696f6e2e0000000000006020830152604082019050919050565b610e958161102d565b82525050565b6000610ea78284610dbc565b915081905092915050565b60006020820190508181036000830152610ecc8184610cff565b905092915050565b6000602082019050610ee96000830184610d74565b92915050565b60006020820190508181036000830152610f098184610d83565b905092915050565b60006020820190508181036000830152610f2a81610e26565b9050919050565b6000602082019050610f466000830184610e8c565b92915050565b6000604051905081810181811067ffffffffffffffff82111715610f6f57600080fd5b8060405250919050565b600067ffffffffffffffff821115610f9057600080fd5b601f19601f8301169050602081019050919050565b6000819050602082019050919050565b600081519050919050565b600081519050919050565b600081519050919050565b6000602082019050919050565b600082825260208201905092915050565b600082825260208201905092915050565b600082825260208201905092915050565b600081905092915050565b60008115159050919050565b6000819050919050565b82818337600083830152505050565b60005b83811015611064578082015181840152602081019050611049565b83811115611073576000848401525b50505050565b6000601f19601f8301169050919050565b6110938161102d565b811461109e57600080fd5b5056fea365627a7a72315820427357d19fbd1a50e27d046f1ad286a42806a4f11b287d9d88a0d9c879ab8c526c6578706572696d656e74616cf564736f6c63430005100040",
  "source": "pragma solidity >=0.4.22 <0.9.0;\r\npragma experimental ABIEncoderV2;\r\n\r\ncontract QuackContract {\r\n\r\n    uint private _totalSupply;\r\n    string[] currentHolders;\r\n    \r\n    // event Transaction(address indexed custodial, string indexed senderId, string receiverId, uint amount);\r\n    //stretch goal: view past transactions by hashing slackid on both sides\r\n\r\n    mapping(string => uint) balances;\r\n\r\n    constructor() public {\r\n        _totalSupply = 10000;\r\n    }\r\n\r\n    function name() public pure returns (string memory) {\r\n        return \"Quack\";\r\n    }\r\n\r\n    function symbol() public pure returns (string memory) {\r\n        return \"QAK\";\r\n    }\r\n\r\n    function checkBalance(string memory _slackId) public view returns(uint amount){\r\n        return balances[_slackId];\r\n    }\r\n    function sendQuack(string memory _sender, string memory _receiver, uint amount) public returns(bool success){\r\n        uint senderBalance = balances[_sender];\r\n        require(senderBalance >= amount, \"You don't have enough Quacks to complete that transaction.\");\r\n\r\n        bool existingUser = _checkIfExistingUser(_receiver);\r\n        if(!existingUser){\r\n            currentHolders.push(_receiver);\r\n            balances[_sender] += (amount/2);\r\n            _totalSupply += (amount/2);\r\n        }\r\n        senderBalance = balances[_sender];\r\n        balances[_sender] = senderBalance - amount;\r\n        balances[_receiver] += amount;\r\n        //emit an event to notify and to store in log\r\n        return true;\r\n    }\r\n    function getTotalSupply() public view returns(uint total) {\r\n        return _totalSupply;\r\n    }\r\n\r\n    function mintQuacks(string memory _minter, uint amount) public returns(bool success) {\r\n        uint length = currentHolders.length;\r\n        _totalSupply += amount;\r\n        uint perHolder = amount/length;\r\n        for(uint i = 0; i < length; i++){\r\n            string memory _tempId = currentHolders[i];\r\n            balances[_tempId] += perHolder;\r\n        }\r\n        uint minterBal = balances[_minter];\r\n        balances[_minter] = minterBal - (perHolder/2);\r\n\r\n        return true;\r\n    }\r\n\r\n    function burnQuacks(string memory _bernieId, uint amount) public returns(bool success) {\r\n        uint bernieBalance = balances[_bernieId];\r\n        require(bernieBalance >= amount, \"You don't have enough Quacks to complete that transaction.\");\r\n        balances[_bernieId] = bernieBalance - amount;\r\n        _totalSupply = _totalSupply - amount;\r\n        return true;\r\n    }\r\n\r\n\r\n    ///////UTILS//////////////////////////////////////////\r\n    function removeUser(uint index) public returns(bool success) {\r\n        uint lastElement = currentHolders.length - 1;\r\n        string memory _temp = currentHolders[lastElement];\r\n        currentHolders[index] = _temp;\r\n        currentHolders.pop();\r\n        return true;\r\n    }\r\n    function _checkIfExistingUser(string memory _slackId) private view returns(bool success){\r\n        bool isInArray = false;\r\n        for(uint i = 0; i < currentHolders.length; i++){\r\n            string memory _temp = currentHolders[i];\r\n            if(keccak256(abi.encodePacked(_temp)) == keccak256(abi.encodePacked(_slackId))) isInArray = true;\r\n        }\r\n        return isInArray;\r\n    }\r\n    function getAccountList() public view returns(string[] memory) {\r\n        string[] memory tempArr = currentHolders;\r\n        return tempArr;\r\n    }\r\n    function distributeCoin(string memory _slackId,uint amount) public returns(bool success) {\r\n        balances[_slackId] += amount;\r\n        currentHolders.push(_slackId);\r\n        return true;\r\n    }       \r\n\r\n\r\n\r\n\r\n    /////////STRETCH AND ERC-20 COMPLIANT FUNCTIONS///////\r\n\r\n\r\n    // function decimals() public view returns (uint8) {\r\n    //     return 0;\r\n    // }\r\n    // function balanceOf(address custodial) public view returns (uint256 balance){\r\n    //     return balances[slackId];\r\n    // } \r\n    // function transfer(string memory _slackId, address _to, uint256 _value) public returns (bool success){\r\n        //check if slack account has enough to withdrawl\r\n        //attempt to make transfer to recipeints account\r\n        //if successful, withdraw amount from slack account and send a success event back\r\n        \r\n    // }\r\n    // function transferFrom(address _from, address _to, uint256 _value) public returns (bool success)\r\n    // function approve(address _spender, uint256 _value) public returns (bool success)\r\n    // function allowance(address _owner, address _spender) public view returns (uint256 remaining)\r\n\r\n\r\n    //backend function\r\n    // function(slackId) {\r\n    //     //checks the balance\r\n    //     //if the balance is 0\r\n    //         // make a call to get accountList\r\n    //         // find index of slackId\r\n    //         //call solidity deleteIdAtIndex function\r\n    // }\r\n}",
  "sourcePath": "C:/Users/marar/Alchemy/career-track-1/CT-crypto-project/alchemy-crypto-solidity/contracts/quackContract.sol",
  "compiler": {
    "name": "solc",
    "version": "0.5.16+commit.9c3226ce.Emscripten.clang"
  },
  "schemaVersion": "3.4.0",
  "updatedAt": "2021-04-27T17:37:12.675Z",
  "networkType": "ethereum",
  "devdoc": {
    "methods": {}
  },
  "userdoc": {
    "methods": {
      "removeUser(uint256)": {
        "notice": "////UTILS//////////////////////////////////////////"
      }
    }
  }
}